{
  "_format": "hh-sol-artifact-1",
  "contractName": "StoreFront",
  "sourceName": "contracts/StoreFront.sol",
  "abi": [
    {
      "inputs": [
        {
          "internalType": "address",
          "name": "",
          "type": "address"
        }
      ],
      "name": "balance",
      "outputs": [
        {
          "internalType": "uint256",
          "name": "",
          "type": "uint256"
        }
      ],
      "stateMutability": "view",
      "type": "function"
    },
    {
      "inputs": [
        {
          "internalType": "uint256",
          "name": "_id",
          "type": "uint256"
        }
      ],
      "name": "buyToken",
      "outputs": [],
      "stateMutability": "payable",
      "type": "function"
    },
    {
      "inputs": [
        {
          "internalType": "uint256",
          "name": "_id",
          "type": "uint256"
        },
        {
          "internalType": "uint256",
          "name": "newValue",
          "type": "uint256"
        }
      ],
      "name": "changeValue",
      "outputs": [],
      "stateMutability": "nonpayable",
      "type": "function"
    },
    {
      "inputs": [
        {
          "internalType": "string",
          "name": "_name",
          "type": "string"
        },
        {
          "internalType": "uint256",
          "name": "value",
          "type": "uint256"
        },
        {
          "internalType": "uint256",
          "name": "size",
          "type": "uint256"
        }
      ],
      "name": "createToken",
      "outputs": [],
      "stateMutability": "nonpayable",
      "type": "function"
    },
    {
      "inputs": [],
      "name": "myBalance",
      "outputs": [
        {
          "internalType": "uint256",
          "name": "",
          "type": "uint256"
        }
      ],
      "stateMutability": "view",
      "type": "function"
    },
    {
      "inputs": [
        {
          "internalType": "uint256",
          "name": "",
          "type": "uint256"
        }
      ],
      "name": "ownership",
      "outputs": [
        {
          "internalType": "address",
          "name": "",
          "type": "address"
        }
      ],
      "stateMutability": "view",
      "type": "function"
    },
    {
      "inputs": [
        {
          "internalType": "uint256",
          "name": "_id",
          "type": "uint256"
        }
      ],
      "name": "tokenOwnership",
      "outputs": [
        {
          "internalType": "address",
          "name": "",
          "type": "address"
        }
      ],
      "stateMutability": "view",
      "type": "function"
    },
    {
      "inputs": [
        {
          "internalType": "uint256",
          "name": "_id",
          "type": "uint256"
        }
      ],
      "name": "tokenValue",
      "outputs": [
        {
          "internalType": "uint256",
          "name": "",
          "type": "uint256"
        }
      ],
      "stateMutability": "view",
      "type": "function"
    },
    {
      "inputs": [],
      "name": "withdraw",
      "outputs": [],
      "stateMutability": "nonpayable",
      "type": "function"
    }
  ],
  "bytecode": "0x60806040526000805534801561001457600080fd5b506109c7806100246000396000f3fe6080604052600436106100865760003560e01c8063bec2a7c511610059578063bec2a7c51461017a578063c9116b6914610256578063cb91449114610281578063d8c27c02146102d0578063e3d670d71461033557610086565b80632d296bf11461008b5780633ccfd60b146100b95780638709b2e7146100d0578063a0f45b6914610115575b600080fd5b6100b7600480360360208110156100a157600080fd5b810190808035906020019092919050505061039a565b005b3480156100c557600080fd5b506100ce610502565b005b3480156100dc57600080fd5b50610113600480360360408110156100f357600080fd5b810190808035906020019092919080359060200190929190505050610614565b005b34801561012157600080fd5b5061014e6004803603602081101561013857600080fd5b81019080803590602001909291905050506106a6565b604051808273ffffffffffffffffffffffffffffffffffffffff16815260200191505060405180910390f35b34801561018657600080fd5b506102546004803603606081101561019d57600080fd5b81019080803590602001906401000000008111156101ba57600080fd5b8201836020820111156101cc57600080fd5b803590602001918460018302840111640100000000831117156101ee57600080fd5b91908080601f016020809104026020016040519081016040528093929190818152602001838380828437600081840152601f19601f82011690508083019250505050505050919291929080359060200190929190803590602001909291905050506106d9565b005b34801561026257600080fd5b5061026b610830565b6040518082815260200191505060405180910390f35b34801561028d57600080fd5b506102ba600480360360208110156102a457600080fd5b8101908080359060200190929190505050610877565b6040518082815260200191505060405180910390f35b3480156102dc57600080fd5b50610309600480360360208110156102f357600080fd5b810190808035906020019092919050505061089f565b604051808273ffffffffffffffffffffffffffffffffffffffff16815260200191505060405180910390f35b34801561034157600080fd5b506103846004803603602081101561035857600080fd5b81019080803573ffffffffffffffffffffffffffffffffffffffff1690602001909291905050506108dc565b6040518082815260200191505060405180910390f35b600181815481106103a757fe5b9060005260206000209060050201600201543410156103c557600080fd5b3460036000600184815481106103d757fe5b906000526020600020906005020160040160009054906101000a900473ffffffffffffffffffffffffffffffffffffffff1673ffffffffffffffffffffffffffffffffffffffff1673ffffffffffffffffffffffffffffffffffffffff16815260200190815260200160002060008282540192505081905550336001828154811061045e57fe5b906000526020600020906005020160040160006101000a81548173ffffffffffffffffffffffffffffffffffffffff021916908373ffffffffffffffffffffffffffffffffffffffff160217905550336002600083815260200190815260200160002060006101000a81548173ffffffffffffffffffffffffffffffffffffffff021916908373ffffffffffffffffffffffffffffffffffffffff16021790555050565b6000600360003373ffffffffffffffffffffffffffffffffffffffff1673ffffffffffffffffffffffffffffffffffffffff1681526020019081526020016000205490506000600360003373ffffffffffffffffffffffffffffffffffffffff1673ffffffffffffffffffffffffffffffffffffffff168152602001908152602001600020819055503373ffffffffffffffffffffffffffffffffffffffff166108fc600360003373ffffffffffffffffffffffffffffffffffffffff1673ffffffffffffffffffffffffffffffffffffffff168152602001908152602001600020549081150290604051600060405180830381858888f19350505050158015610610573d6000803e3d6000fd5b5050565b3373ffffffffffffffffffffffffffffffffffffffff166002600084815260200190815260200160002060009054906101000a900473ffffffffffffffffffffffffffffffffffffffff1673ffffffffffffffffffffffffffffffffffffffff161461067f57600080fd5b806001838154811061068d57fe5b9060005260206000209060050201600201819055505050565b60026020528060005260406000206000915054906101000a900473ffffffffffffffffffffffffffffffffffffffff1681565b60016040518060a0016040528060005481526020018581526020018481526020018381526020013373ffffffffffffffffffffffffffffffffffffffff1681525090806001815401808255809150506001900390600052602060002090600502016000909190919091506000820151816000015560208201518160010190805190602001906107699291906108f4565b50604082015181600201556060820151816003015560808201518160040160006101000a81548173ffffffffffffffffffffffffffffffffffffffff021916908373ffffffffffffffffffffffffffffffffffffffff160217905550505033600260008054815260200190815260200160002060006101000a81548173ffffffffffffffffffffffffffffffffffffffff021916908373ffffffffffffffffffffffffffffffffffffffff1602179055506000808154809291906001019190505550505050565b6000600360003373ffffffffffffffffffffffffffffffffffffffff1673ffffffffffffffffffffffffffffffffffffffff16815260200190815260200160002054905090565b60006001828154811061088657fe5b9060005260206000209060050201600201549050919050565b60006002600083815260200190815260200160002060009054906101000a900473ffffffffffffffffffffffffffffffffffffffff169050919050565b60036020528060005260406000206000915090505481565b828054600181600116156101000203166002900490600052602060002090601f016020900481019282601f1061093557805160ff1916838001178555610963565b82800160010185558215610963579182015b82811115610962578251825591602001919060010190610947565b5b5090506109709190610974565b5090565b5b8082111561098d576000816000905550600101610975565b509056fea2646970667358221220e9bf3c1a3fa3b9f052b0219a4a2b5372c6b6653ffef487cb9939e39b4cee717264736f6c63430007030033",
  "linkReferences": {},
  "deployedLinkReferences": {}
}