{
  "_format": "hh-sol-artifact-1",
  "contractName": "StoreFront",
  "sourceName": "contracts/StoreFront.sol",
  "abi": [
    {
      "inputs": [],
      "stateMutability": "nonpayable",
      "type": "constructor"
    },
    {
      "inputs": [
        {
          "internalType": "address",
          "name": "",
          "type": "address"
        }
      ],
      "name": "balance",
      "outputs": [
        {
          "internalType": "uint256",
          "name": "",
          "type": "uint256"
        }
      ],
      "stateMutability": "view",
      "type": "function"
    },
    {
      "inputs": [
        {
          "internalType": "uint256",
          "name": "_id",
          "type": "uint256"
        }
      ],
      "name": "buyToken",
      "outputs": [],
      "stateMutability": "payable",
      "type": "function"
    },
    {
      "inputs": [
        {
          "internalType": "uint256",
          "name": "_id",
          "type": "uint256"
        },
        {
          "internalType": "uint256",
          "name": "newValue",
          "type": "uint256"
        }
      ],
      "name": "changeValue",
      "outputs": [],
      "stateMutability": "nonpayable",
      "type": "function"
    },
    {
      "inputs": [
        {
          "internalType": "string",
          "name": "_name",
          "type": "string"
        },
        {
          "internalType": "uint256",
          "name": "value",
          "type": "uint256"
        },
        {
          "internalType": "uint256",
          "name": "size",
          "type": "uint256"
        }
      ],
      "name": "createToken",
      "outputs": [],
      "stateMutability": "nonpayable",
      "type": "function"
    },
    {
      "inputs": [],
      "name": "getNumberTokens",
      "outputs": [
        {
          "internalType": "uint256",
          "name": "",
          "type": "uint256"
        }
      ],
      "stateMutability": "view",
      "type": "function"
    },
    {
      "inputs": [
        {
          "internalType": "uint256",
          "name": "_index",
          "type": "uint256"
        }
      ],
      "name": "getToken",
      "outputs": [
        {
          "internalType": "string",
          "name": "",
          "type": "string"
        },
        {
          "internalType": "uint256",
          "name": "",
          "type": "uint256"
        },
        {
          "internalType": "uint256",
          "name": "",
          "type": "uint256"
        }
      ],
      "stateMutability": "view",
      "type": "function"
    },
    {
      "inputs": [],
      "name": "myAddress",
      "outputs": [
        {
          "internalType": "address",
          "name": "",
          "type": "address"
        }
      ],
      "stateMutability": "view",
      "type": "function"
    },
    {
      "inputs": [],
      "name": "myBalance",
      "outputs": [
        {
          "internalType": "uint256",
          "name": "",
          "type": "uint256"
        }
      ],
      "stateMutability": "view",
      "type": "function"
    },
    {
      "inputs": [
        {
          "internalType": "uint256",
          "name": "",
          "type": "uint256"
        }
      ],
      "name": "ownership",
      "outputs": [
        {
          "internalType": "address",
          "name": "",
          "type": "address"
        }
      ],
      "stateMutability": "view",
      "type": "function"
    },
    {
      "inputs": [
        {
          "internalType": "uint256",
          "name": "_id",
          "type": "uint256"
        }
      ],
      "name": "tokenOwnership",
      "outputs": [
        {
          "internalType": "address",
          "name": "",
          "type": "address"
        }
      ],
      "stateMutability": "view",
      "type": "function"
    },
    {
      "inputs": [
        {
          "internalType": "uint256",
          "name": "_id",
          "type": "uint256"
        }
      ],
      "name": "tokenValue",
      "outputs": [
        {
          "internalType": "uint256",
          "name": "",
          "type": "uint256"
        }
      ],
      "stateMutability": "view",
      "type": "function"
    },
    {
      "inputs": [],
      "name": "withdraw",
      "outputs": [],
      "stateMutability": "nonpayable",
      "type": "function"
    }
  ],
  "bytecode": "0x6080604052600460005534801561001557600080fd5b506040805160808101825260008082528251808401845260158082527f4e696b6520526561637420456c656d656e7420353500000000000000000000006020808401919091528085019283529484015260b9606084015260018054808201825592528251600080516020610ca1833981519152600490930292830190815590518051939491936100ba93600080516020610cc183398151915201929190910190610359565b5060408281015160028301556060928301516003909201919091558051608081018252600180825282518084018452601b81527f56616e732078204b6569746820486172696e6720536c69702d4f6e00000000006020828101919091528084019182526010948401949094526064948301949094528054808201825560009190915281516004909102600080516020610ca18339815191528101918255935180519294919361017e93600080516020610cc183398151915290930192910190610359565b506040820151816002015560608201518160030155505060016040518060800160405280600281526020016040518060400160405280601a81526020017f4a6f7264616e20274a7562696c656527204a6f7264616e2031310000000000008152508152602001601c815260200160c8815250908060018154018082558091505060019003906000526020600020906004020160009091909190915060008201518160000155602082015181600101908051906020019061023f929190610359565b506040828101516002830155606092830151600392830155805160808101825291825280518082018252601181527010591a59185cc8155b1d1c98509bdbdcdd607a1b60208281019190915280840191825260169284019290925260969383019390935260018054808201825560009190915282516004909102600080516020610ca1833981519152810191825593518051939491936102f693600080516020610cc1833981519152909301929190910190610359565b506040820151816002015560608201518160030155505060005b600481101561035357600081815260026020526040902080546001600160a01b0319167393d24ff767a74b1ceec47f23495edc4195d3081a179055600101610310565b506103ec565b828054600181600116156101000203166002900490600052602060002090601f016020900481019282601f1061039a57805160ff19168380011785556103c7565b828001600101855582156103c7579182015b828111156103c75782518255916020019190600101906103ac565b506103d39291506103d7565b5090565b5b808211156103d357600081556001016103d8565b6108a6806103fb6000396000f3fe6080604052600436106100975760003560e01c806309c6ef901461009c57806326b85ee1146100c35780632d296bf1146100f45780633ccfd60b146101135780638709b2e714610128578063a0f45b6914610158578063bec2a7c514610182578063c9116b6914610203578063cb91449114610218578063d8c27c0214610242578063e3d670d71461026c578063e4b50cb81461029f575b600080fd5b3480156100a857600080fd5b506100b161034f565b60408051918252519081900360200190f35b3480156100cf57600080fd5b506100d8610355565b604080516001600160a01b039092168252519081900360200190f35b6101116004803603602081101561010a57600080fd5b503561036d565b005b34801561011f57600080fd5b5061011161040c565b34801561013457600080fd5b506101116004803603604081101561014b57600080fd5b508035906020013561044d565b34801561016457600080fd5b506100d86004803603602081101561017b57600080fd5b5035610497565b34801561018e57600080fd5b50610111600480360360608110156101a557600080fd5b810190602081018135600160201b8111156101bf57600080fd5b8201836020820111156101d157600080fd5b803590602001918460018302840111600160201b831117156101f257600080fd5b9193509150803590602001356104b2565b34801561020f57600080fd5b506100b16105cf565b34801561022457600080fd5b506100b16004803603602081101561023b57600080fd5b50356105e2565b34801561024e57600080fd5b506100d86004803603602081101561026557600080fd5b503561060a565b34801561027857600080fd5b506100b16004803603602081101561028f57600080fd5b50356001600160a01b0316610625565b3480156102ab57600080fd5b506102c9600480360360208110156102c257600080fd5b5035610637565b6040518080602001848152602001838152602001828103825285818151815260200191508051906020019080838360005b838110156103125781810151838201526020016102fa565b50505050905090810190601f16801561033f5780820380516001836020036101000a031916815260200191505b5094505050505060405180910390f35b60015490565b7393d24ff767a74b1ceec47f23495edc4195d3081a81565b6001818154811061037a57fe5b90600052602060002090600402016002015434101561039857600080fd5b346003600060026000600186815481106103ae57fe5b6000918252602080832060049092029091015483528281019390935260409182018120546001600160a01b03168452838301949094529182018320805490940190935592815260029091522080546001600160a01b03191633179055565b3360008181526003602052604080822080549083905590519092916108fc9181818181818888f19350505050158015610449573d6000803e3d6000fd5b5050565b6000828152600260205260409020546001600160a01b0316331461047057600080fd5b806001838154811061047e57fe5b9060005260206000209060040201600201819055505050565b6002602052600090815260409020546001600160a01b031681565b6104f184848080601f01602080910402602001604051908101604052809392919081815260200183838082843760009201919091525061071392505050565b60016040518060800160405280600054815260200186868080601f01602080910402602001604051908101604052809392919081815260200183838082843760009201829052509385525050506020808301879052604090920185905283546001818101865594825290829020835160049092020190815582820151805193949193610585939285019291909101906107dd565b50604082810151600280840191909155606090930151600390920191909155600080548152602092909252812080546001600160a01b031916331790558054600101905550505050565b3360009081526003602052604090205490565b6000600182815481106105f157fe5b9060005260206000209060040201600201549050919050565b6000908152600260205260409020546001600160a01b031690565b60036020526000908152604090205481565b606060008060006001858154811061064b57fe5b906000526020600020906004020190508060010181600201548260030154828054600181600116156101000203166002900480601f0160208091040260200160405190810160405280929190818152602001828054600181600116156101000203166002900480156106fe5780601f106106d3576101008083540402835291602001916106fe565b820191906000526020600020905b8154815290600101906020018083116106e157829003601f168201915b50505050509250935093509350509193909250565b6107b9816040516024018080602001828103825283818151815260200191508051906020019080838360005b8381101561075757818101518382015260200161073f565b50505050905090810190601f1680156107845780820380516001836020036101000a031916815260200191505b5060408051601f198184030181529190526020810180516001600160e01b031663104c13eb60e21b17905292506107bc915050565b50565b80516a636f6e736f6c652e6c6f67602083016000808483855afa5050505050565b828054600181600116156101000203166002900490600052602060002090601f016020900481019282601f1061081e57805160ff191683800117855561084b565b8280016001018555821561084b579182015b8281111561084b578251825591602001919060010190610830565b5061085792915061085b565b5090565b5b80821115610857576000815560010161085c56fea26469706673582212206965cc6f97c390021080a161186f484103175e98c87f4ce8ae18cc60683e0a6864736f6c63430007030033b10e2d527612073b26eecdfd717e6a320cf44b4afac2b0732d9fcbe2b7fa0cf6b10e2d527612073b26eecdfd717e6a320cf44b4afac2b0732d9fcbe2b7fa0cf7",
  "linkReferences": {},
  "deployedLinkReferences": {}
}